:0400000021EF0AF0F2
:1010000000003AEC0AF0000E2F6E000E2E6E000E5D
:101010002D6E000E2C6E3E0E276E030E05EC0AF0B0
:101020002FC01FF0206A000E226E0A0E216E4BECBC
:1010300009F01F6623EF08F0C00E276E020E05ECC4
:101040000AF031EF08F02FC01FF0206A000E226E68
:101050000A0E216E4BEC09F01F50276E020E05ECB4
:101060000AF0140E2B6E7A0EE82EFED72B2EFCD72C
:101070003D0E276E030E05EC0AF02FC01FF0206A0C
:10108000000E226E0A0E216EADEC09F01F6650EFC5
:1010900008F0C00E276E020E05EC0AF05EEF08F0B5
:1010A0002FC01FF0206A000E226E0A0E216EADECDA
:1010B00009F01F50276E020E05EC0AF0140E2B6E7D
:1010C0007A0EE82EFED72B2EFCD73B0E276E030E92
:1010D00005EC0AF02EC01FF0206A000E226E0A0EE8
:1010E000216E4BEC09F01F667DEF08F0C00E276EF5
:1010F000020E05EC0AF08BEF08F02EC01FF0206AFC
:10110000000E226E0A0E216E4BEC09F01F50276E66
:10111000020E05EC0AF0140E2B6E7A0EE82EFED7A6
:101120002B2EFCD7370E276E030E05EC0AF02EC0CF
:101130001FF0206A000E226E0A0E216EADEC09F03F
:101140001F66AAEF08F0C00E276E020E05EC0AF02B
:10115000B8EF08F02EC01FF0206A000E226E0A0EB3
:10116000216EADEC09F01F50276E020E05EC0AF05F
:10117000140E2B6E7A0EE82EFED72B2EFCD72F0ED8
:10118000276E030E05EC0AF02DC01FF0206A000E3A
:10119000226E0A0E216E4BEC09F01F502010D8A4CD
:1011A000D4EF08F0D6EF08F0DDEF08F0C00E276EA0
:1011B000020E05EC0AF0EBEF08F02DC01FF0206ADC
:1011C000000E226E0A0E216E4BEC09F01F50276EA6
:1011D000020E05EC0AF0140E2B6E7A0EE82EFED7E6
:1011E0002B2EFCD71F0E276E030E05EC0AF02DC028
:1011F0001FF0206A000E226E0A0E216EADEC09F07F
:101200001F502010D8A407EF09F009EF09F010EFE4
:1012100009F0C00E276E020E05EC0AF01EEF09F071
:101220002DC01FF0206A000E226E0A0E216EADEC5A
:1012300009F01F50276E020E05EC0AF0140E2B6EFB
:101240007A0EE82EFED72B2EFCD72C2A180E2C64F3
:101250002CEF09F02EEF09F00BEF08F02D2A3B0ED2
:101260002D6435EF09F037EF09F009EF08F02E2A69
:101270003B0E2E643EEF09F040EF09F007EF08F057
:101280002F2A170E2F6447EF09F049EF09F005EFF9
:1012900008F000EF00F0000E246E22BE54EF09F0BB
:1012A00052EF09F05AEF09F0216C221ED8B0222A21
:1012B000010E246E20BE61EF09F05FEF09F067EFC9
:1012C00009F01F6C201ED8B0202A010E241A000E2F
:1012D000266E000E256E21502210D8B472EF09F050
:1012E00074EF09F09CEF09F0010E236E7CEF09F01A
:1012F000D89021362236232A22AE81EF09F083EFDF
:1013000009F078EF09F0D8902536263621501F5C79
:1013100022502058D8A08FEF09F091EF09F096EFF6
:1013200009F021501F5E2250205A2580D890223289
:101330002132232E83EF09F02450D8B4A2EF09F014
:10134000A4EF09F0A8EF09F0256C261ED8B0262AD4
:1013500025C01FF026C020F01200000E246E20BE13
:10136000B6EF09F0B4EF09F0BCEF09F01F6C201ED6
:10137000D8B0202A010E246E22BEC3EF09F0C1EFBF
:1013800009F0C7EF09F0216C221ED8B0222A2150A3
:101390002210D8B4CEEF09F0D0EF09F0F4EF09F045
:1013A000010E236ED8EF09F0D89021362236232A79
:1013B00022AEDDEF09F0DFEF09F0D4EF09F02150A4
:1013C0001F5C22502058D8A0E8EF09F0EAEF09F09E
:1013D000EEEF09F021501F5E2250205AD8902232A1
:1013E0002132232EDFEF09F02450D8B4FAEF09F0B0
:1013F000FCEF09F000EF0AF01F6C201ED8B0202A85
:101400001FC01FF020C020F012002A6E2750D8A461
:101410000CEF0AF00EEF0AF010EF0AF020EF0AF0DE
:101420002A50020DF350010FD96EDA6ADECF28F090
:10143000DDCF29F028C0D9FF29C0DAFF27C0DFFFA0
:101440001200C20EF66E140EF76E000EF86E00EE6D
:1014500001F010EE1EF00900F5CFEEFFE550E1506F
:10146000FAE12F6A2E6A2D6A2C6A000EF86E0001CE
:1014700001EF08F0000E1F6E020E4FEC0AF0000E96
:101480001F6E030E4FEC0AF0000E276E020E05ECE5
:101490000AF0000E276E030E05EC0AF01200226E11
:1014A0002250020DF350150FD96EDA6ADECF20F00C
:1014B000DDCF21F020C0D9FF21C0DAFF1FC0DFFF40
:1014C0001200890F8A0F8B0F8C0F8D0F800F810FE9
:1014D000820F830F840F920F930F940F950F960F27
:00000001FF
